:100000000C9462000C948A000C948A000C948A0070
:100010000C948A000C948A000C948A000C948A0038
:100020000C948A000C948A000C948A000C948A0028
:100030000C948A000C948A000C948A000C948A0018
:100040000C9448040C948A000C948A000C948A0046
:100050000C948A000C948A000C948A000C948A00F8
:100060000C9492040C948A000000000023002600E7
:10007000290000000008000201000003040700003E
:1000800000000000000000000000250028002B00F8
:1000900000000000240027002A00040404040404D3
:1000A0000404020202020202030303030303010227
:1000B00004081020408001020408102001020408F6
:1000C0001020B10511241FBECFEFD8E0DEBFCDBF99
:1000D00011E0A0E0B1E0E2EBFDE002C005900D927E
:1000E000A034B107D9F722E0A0E4B1E001C01D922D
:1000F000AB31B207E1F710E0C2E6D0E004C02197CF
:10010000FE010E94D106C136D107C9F70E94D10570
:100110000C94D7060C940000CF93DF9390E0FC0181
:10012000E255FF4F249186569F4FFC01849188230E
:10013000C1F090E0880F991FFC01E057FF4FC59177
:10014000D491FC01EA57FF4FA591B4919FB7F89461
:100150008881E22FE0958E2388838C91E823EC93AD
:100160009FBFDF91CF91089508950895AF92BF92F8
:10017000CF92DF92EF92FF920F931F93CF93DF9373
:100180006C017B018B01040F151FEB015E01AE18A2
:10019000BF08C017D10759F06991D601ED91FC91C4
:1001A0000190F081E02DC6010995892B79F7C501F1
:1001B000DF91CF911F910F91FF90EF90DF90CF9043
:1001C000BF90AF900895833081F028F4813099F08A
:1001D0008230A9F008958730A9F08830C9F08430C2
:1001E000B1F4809180008F7D03C0809180008F7773
:1001F00080938000089584B58F7784BD089584B579
:100200008F7DFBCF8091B0008F778093B0000895F1
:100210008091B0008F7DF9CFCF93DF93282F30E00E
:10022000F901EE58FF4F8491F901E255FF4FD49147
:10023000F901E656FF4FC491CC23A1F081110E9431
:10024000E300EC2FF0E0EE0FFF1FE859FF4FA59100
:10025000B491EC91ED2381E090E009F480E0DF912E
:10026000CF91089580E090E0FACF1F93CF93DF9372
:10027000282F30E0F901EE58FF4F8491F901E25543
:10028000FF4FD491F901E656FF4FC491CC23A9F05A
:10029000162F81110E94E300EC2FF0E0EE0FFF1FFC
:1002A000EA57FF4FA591B4918FB7F894EC911111D3
:1002B00008C0D095DE23DC938FBFDF91CF911F91D3
:1002C0000895DE2BF8CF3FB7F8948091F701909115
:1002D000F801A091F901B091FA0126B5A89B05C0DB
:1002E0002F3F19F00196A11DB11D3FBFBA2FA92FB5
:1002F000982F8827BC01CD01620F711D811D911DB2
:1003000042E0660F771F881F991F4A95D1F708951D
:100310008F929F92AF92BF92CF92DF92EF92FF9215
:100320004B015C010E9463016B017C010E9463012F
:100330006C197D098E099F09683E734081059105FE
:10034000A8F321E0821A9108A108B10888EEC80E2E
:1003500083E0D81EE11CF11C81149104A104B104B6
:1003600029F7FF90EF90DF90CF90BF90AF909F90D4
:100370008F900895089520918101260F3327331F10
:1003800021323105ECF42091CA01FC0190E080E0BB
:10039000243069F082E00895A09181012191AC019F
:1003A0004F595E4FA40FB52FB11D2C9301968617A0
:1003B00098F380918101680F6093810180E0089536
:1003C00081E008951092CA0181E08093C9011092E2
:1003D000A40161E082E10E94350161E083E10E94B5
:1003E0003501E9EBF0E080818E7F808380818D7F15
:1003F000808388E48093B80085E48093BC000895EE
:10040000CF93DF9391E0909360018823B9F0C0917E
:10041000B800D091BA008091BC008A7B8093BC0068
:1004200060E082E10E94350160E083E10E943501D5
:100430000E94E201D093BA00C093B800DF91CF913F
:1004400008950895E091020280910102E81730F4C6
:10045000F0E0E05CFE4F808190E008958FEF9FEF29
:10046000089590910202809101022FEF3FEF9817BB
:1004700048F4E92FF0E0E05CFE4F208130E09F5F20
:1004800090930202C90108958091010290910202A5
:10049000891B990B0895CF92DF92EF92FF920F93F1
:1004A0001F93CF93DF937C01CB018A012091D00170
:1004B000222389F0EB016B01C40ED51ECC15DD059E
:1004C00069F06991D701ED91FC910190F081E02DE7
:1004D000C7010995F3CF642F0E94BB01C801DF91CA
:1004E000CF911F910F91FF90EF90DF90CF900895E3
:1004F000CF93DF931F92CDB7DEB769832091D001F0
:100500002223F9F02091FF01203258F021E030E061
:10051000FC013383228390E080E00F90DF91CF9144
:10052000089580910002E82FF0E0EF52FE4F99818C
:1005300090838F5F809300028093FF0181E090E0C1
:10054000ECCF61E0CE0101960E94BB01F7CFCF92C4
:10055000DF92EF92FF920F931F93CF93DF93FC01F3
:10056000C48121E02093D001C093F10110920002D8
:100570001092FF018385682B83E092E00E9478024D
:10058000D091FF01D13208F092C00E9463016B014B
:100590007C018091CA01811165C082E08093CA010B
:1005A00081E08093C9018FEF8093C8011092C70149
:1005B000D093C601A1EDB1E0E6EAF1E080E0D81306
:1005C00085C01092A5018091A501CC0FC82BC093C6
:1005D000A5018091A401813009F07CC01092A40192
:1005E0000E9463016B017C018091A5018093BB0097
:1005F0008091CC019091CD01A091CE01B091CF011D
:10060000892B8A2B8B2B99F00E9463010091CC01DE
:100610001091CD012091CE013091CF016C197D094F
:100620008E099F090617170728073907E0F18091FF
:10063000BC0083FDD9CF85EC8093BC000E94630190
:100640006B017C018091CA01823009F445C0809120
:10065000C8018F3F61F18091C801803241F18091E2
:10066000C80125C08091CC019091CD01A091CE010F
:10067000B091CF01892B8A2B8B2B09F48ACF0E9452
:1006800063010091CC011091CD012091CE013091F8
:10069000CF016C197D098E099F09061717072807D6
:1006A000390708F076CF8091CB010E9400021092AA
:1006B00000021092FF011092D001DF91CF911F91A3
:1006C0000F91FF90EF90DF90CF9008959D919193BF
:1006D0008F5F75CF85EEB0CF8091CC019091CD0129
:1006E000A091CE01B091CF01892B8A2B8B2B09F4DD
:1006F000A9CF0E9463010091CC011091CD012091FE
:10070000CE013091CF016C197D098E099F09061722
:1007100017072807390708F095CFC5CF90E080E08C
:100720000895FC0101900020E9F73197AF01481BC3
:10073000590BBC018FE092E00C94B6000F931F930D
:10074000CF938C01C62F0E94A7026C2F6460C80152
:100750000E94A7026C2F6B7FC8010E94A70283EC46
:1007600090E00197F1F7CF911F910F9108950F93AA
:100770001F93CF93DF938C01D62FC42F607F642B00
:100780000E949E0380E1D89FB00111246C2BC80108
:10079000DF91CF911F910F910C949E03CF93DF9324
:1007A000CDB7DEB728970FB6F894DEBF0FBECDBF2A
:1007B00098E0E0E0F1E0DE01119601900D929A954B
:1007C000E1F790911702981708F48FEF90E0880FE7
:1007D000991F21E030E02C0F3D1F820F931FFC0179
:1007E0006081606840E08FE092E028960FB6F89450
:1007F000DEBF0FBECDBFDF91CF910C94B70340E0B9
:1008000061E08FE092E00E94B7038BE39FE10197E4
:10081000F1F7089541E00E94B70381E090E0089568
:1008200085ED8093BC008091CC019091CD01A09189
:10083000CE01B091CF010796A11DB11D23E0B69561
:10084000A795979587952A95D1F72091BC0024FD0F
:1008500003C01092CA0108954091CC015091CD017E
:100860006091CE017091CF01452B462B472B69F348
:100870000097A105B10541F025E32A95F1F70000A5
:100880000197A109B109E1CF8091CB010C9400023D
:100890001F920F920FB60F9211242F933F938F93B5
:1008A0009F93AF93BF938091F3019091F401A09136
:1008B000F501B091F6013091F20123E0230F2D37BD
:1008C00058F50196A11DB11D2093F2018093F3010B
:1008D0009093F401A093F501B093F6018091F70194
:1008E0009091F801A091F901B091FA010196A11D32
:1008F000B11D8093F7019093F801A093F901B09393
:10090000FA01BF91AF919F918F913F912F910F90DD
:100910000FBE0F901F90189526E8230F0296A11D79
:10092000B11DD2CF1F920F920FB60F9211242F93A9
:100930003F934F935F936F937F938F939F93AF9367
:10094000BF93EF93FF938091B900887F803609F4BD
:100950004AC0F0F5883209F4A7C018F5803109F4CF
:100960009BC0B8F4882309F4F9C0883009F494C016
:10097000FF91EF91BF91AF919F918F917F916F9177
:100980005F914F913F912F910F900FBE0F901F904D
:100990001895883109F488C0803251F78093C801D6
:1009A00014C0803409F49DC040F48033B9F3883317
:1009B000F9F68093C80185ECB0C0803509F485C094
:1009C000883509F496C0883499F60E941004D0CF77
:1009D000883909F48CC038F5883729F050F4883606
:1009E00011F0803729F683E08093CA011092A301A9
:1009F00057C0883809F47BC0803919F0803809F075
:100A0000B7CF8091A301803208F071C0E091A301BB
:100A100081E08E0F8093A3018091BB00F0E0ED5741
:100A2000FE4F80833DC0803B39F0E0F4803A09F40A
:100A300079C0883A09F09CCF84E08093CA01109273
:100A4000820110928101E091FD01F091FE01099572
:100A50008091810181110FC081E08093810110920A
:100A6000610109C0803C09F4A6CF883C09F4A3CFFA
:100A7000883B09F07DCFE091820181E08E0F809369
:100A80008201F0E0EF59FE4F80818093BB0090918E
:100A900082018091810129C08091A5018093BB00D2
:100AA00085EC8093BC0064CF9091C7018091C60112
:100AB000981758F5E091C70181E08E0F8093C70128
:100AC000F0E0EA55FE4F8081E9CFE091C70181E077
:100AD0008E0F8093C7018091BB00F0E0EA55FE4F76
:100AE00080839091C7018091C6019817C8F285E86C
:100AF000D8CFE091C70181E08E0F8093C70180912C
:100B0000BB00F0E0EA55FE4F80838091C90181115E
:100B10005CCF81E08093A40184EA8093BC001092B2
:100B2000CA0126CF85EC8093BC001092CA01809147
:100B3000A301803230F4E091A301F0E0ED57FE4FC5
:100B400010826091A30170E0E091FB01F091FC0143
:100B500083E891E009951092A3010ACF1092C80191
:100B600034CFE3E0F2E01382128288EE93E0A0E05B
:100B7000B0E084839583A683B7838CE091E0918372
:100B80008083EFE0F2E0138212828EE191E09183A4
:100B9000808387E2848380E1818782E08287138675
:100BA0000895789484B5826084BD84B5816084BDE5
:100BB00085B5826085BD85B5816085BD80916E00FB
:100BC000816080936E00109281008091810082602C
:100BD0008093810080918100816080938100809169
:100BE00080008160809380008091B1008460809358
:100BF000B1008091B00081608093B00080917A0054
:100C0000846080937A0080917A00826080937A0079
:100C100080917A00816080937A0080917A00806868
:100C200080937A001092C1008CE00E948C008DE0CD
:100C30000E948C0010920202109201021092000297
:100C40001092FF010E94E20184EB90E09093FE017C
:100C50008093FD0185EB90E09093FC018093FB0174
:100C60001092140280911902823018F098E090934B
:100C700014028093170262E370E080E090E00E942B
:100C8000880160911A028FE092E00E94A70268EE4C
:100C900073E080E090E00E94880160E38FE092E0E2
:100CA0000E949E03CBE4D6E4CE010197F1F760E306
:100CB0008FE092E00E949E032197F1F760E38FE0BE
:100CC00092E00E949E0383E592E00197F1F760E2D3
:100CD0008FE092E00E949E0360911402606240E007
:100CE0008FE092E00E94B70384E08093150240E019
:100CF0006CE08FE092E00E94B7030E94FF0382E065
:100D00008093160240E066E08FE092E00E94B70315
:100D100040E062E08FE092E00E94B7038BE39FE146
:100D20000197F1F7C8E000E010E0C0931A0260E01C
:100D30008FE092E00E94A70280E00E94CE0386E24C
:100D400091E00E9491038CE00E940C01019779F4DC
:100D500081E00E94CE038DE291E00E94910364EF56
:100D600071E080E090E00E9488010E94FF038DE026
:100D70000E940C01019779F481E00E94CE0386E382
:100D800091E00E94910364EF71E080E090E00E94A6
:100D900088010E94FF030115110539F20E9400002D
:100DA000C4CFEE0FFF1F0590F491E02D0994F89445
:020DB000FFCF73
:100DB20000004000140054000000000078024B02C2
:100DC2008E032102440231022202000000000A04C2
:100DD200B6008E03BA01546F6D626F6C00746F6D52
:100DE200626F6C203100746F6D626F6C2032000094
:00000001FF
