:100000000C942A000C9449000C9447000C9447006F
:100010000C9447000C9447000C9447000C94470044
:100020000C9447000C9447000C9447000C94470034
:100030000C9447000C9447000C9447000C94470024
:100040000C9447000C9447000C9447000C94470014
:100050000C94470011241FBECFE5D4E0DEBFCDBF16
:1000600010E0A0E6B0E0E4E0F6E002C005900D92FA
:10007000AE38B107D9F710E0AEE8B0E001C01D928C
:10008000A239B107E1F70E949E000C9400030C9482
:1000900000001F920F920FB60F9211248F939F931F
:1000A00080918E0090918F00019769F41EBC8CB5F1
:1000B0009DB590939100809390001DBC1CBC109244
:1000C0008F0010928E0080918E0090918F00892B6E
:1000D00049F48EB581608EBD81E090E090938F00F1
:1000E00080938E009F918F910F900FBE0F901F9065
:1000F000189585BB9698959A80E89EE30197F1F74D
:1001000082B3807C82BB15BA089585BB969A959A76
:1001100080E89EE30197F1F782B3807C82BB15BA39
:100120000895CF93DF93EC0103C021960E948500D0
:1001300088818823D1F7DF91CF910895BF92CF9224
:10014000DF92EF92FF920F931F93DF93CF93CDB780
:10015000DEB760970FB6F894DEBF0FBECDBF8FEF4E
:1001600084BB8BEF81BB84EF91E028EC30E0F90198
:100170003197F1F70197D9F78BB780648BBF85B7BB
:10018000816085BF1FBC81E00E94790084EF91E00F
:1001900028EC30E0F9013197F1F70197D9F788E3BE
:1001A0000E94790084EF91E028EC30E0F90131976A
:1001B000F1F70197D9F78FE00E94790084EF91E081
:1001C00028EC30E0F9013197F1F70197D9F77894ED
:1001D00088E2B82E6E010894C11CD11C909A8B2D18
:1001E0008A95F1F79098609190007091910088271E
:1001F00077FD8095982F0E94CC0126EA3BE944ECDC
:100200005CE30E94580220E030E040EA51E40E94A2
:1002100031010E9499017B018C0177FF06C080E6C5
:1002200090E00E94910080EC19C081E790E00E946C
:10023000910080EC0E94790080E890E00E9491009B
:10024000C701B6014AE050E00E94BB02C6010E940D
:10025000910087E890E00E94910080E80E94790078
:10026000BDCF0CD0EBC0E3D040F0DAD030F021F4B9
:100270005F3F19F0CCC0511115C1CFC0F0D098F339
:100280009923C9F35523B1F3951B550BBB27AA2717
:1002900062177307840738F09F5F5F4F220F331F89
:1002A000441FAA1FA9F333D00E2E3AF0E0E830D055
:1002B00091505040E695001CCAF729D0FE2F27D058
:1002C000660F771F881FBB1F261737074807AB0726
:1002D000B0E809F0BB0B802DBF01FF2793585F4F9B
:1002E0002AF09E3F510568F092C0DCC05F3FECF3FE
:1002F000983EDCF3869577956795B795F7959F5F60
:10030000C9F7880F911D9695879597F90895E1E0B3
:10031000660F771F881FBB1F621773078407BA0712
:1003200020F0621B730B840BBA0BEE1F88F7E0956D
:10033000089504D06894B111B5C0089598D088F09C
:100340009F5790F0B92F9927B751A0F0D1F0660FC1
:10035000771F881F991F1AF0BA95C9F712C0B130DC
:1003600081F09FD0B1E008959CC0672F782F882737
:10037000B85F39F0B93FCCF3869577956795B3951B
:10038000D9F73EF490958095709561957F4F8F4F8A
:100390009F4F0895E89409C097FB3EF4909580958F
:1003A000709561957F4F8F4F9F4F9923A9F0F92F3B
:1003B00096E9BB279395F695879577956795B795B9
:1003C000F111F8CFFAF4BB0F11F460FF1BC06F5F9F
:1003D0007F4F8F4F9F4F16C0882311F096E911C0B1
:1003E000772321F09EE8872F762F05C0662371F0D2
:1003F00096E8862F70E060E02AF09A95660F771FE6
:10040000881FDAF7880F9695879597F9089597F9D9
:100410009F6780E870E060E008959FEF80EC0895AA
:1004200000240A94161617061806090608950024D3
:100430000A9412161306140605060895092E03944D
:10044000000C11F4882352F0BB0F40F4BF2B11F4C1
:1004500060FF04C06F5F7F4F8F4F9F4F089557FD20
:100460009058440F551F59F05F3F71F04795880F22
:1004700097FB991F61F09F3F79F0879508951216B9
:1004800013061406551FF2CF4695F1DF08C0161665
:1004900017061806991FF1CF869571056105089416
:1004A0000895E894BB2766277727CB0197F908952D
:1004B0000BD0C4CFB5DF28F0BADF18F0952309F0D0
:1004C000A6CFABCF1124EECFCADFA0F3959FD1F317
:1004D000950F50E0551F629FF001729FBB27F00DF2
:1004E000B11D639FAA27F00DB11DAA1F649F662747
:1004F000B00DA11D661F829F2227B00DA11D621F96
:10050000739FB00DA11D621F839FA00D611D221F4F
:10051000749F3327A00D611D231F849F600D211D33
:10052000822F762F6A2F11249F5750408AF0E1F0D6
:1005300088234AF0EE0FFF1FBB1F661F771F881F1F
:1005400091505040A9F79E3F510570F060CFAACF5F
:100550005F3FECF3983EDCF3869577956795B7950A
:10056000F795E7959F5FC1F7FE2B880F911D969534
:10057000879597F90895FB019F01E8944230C4F0F4
:100580004532B4F44A3029F497FB1EF490958195D6
:100590009F4F642F77270E94EC02805D8A330CF016
:1005A000895D8193CB010097A1F716F45DE2519329
:1005B0001082C9010C94DC02DC01FC01672F7191EF
:1005C0007723E1F7329704C07C916D937083629139
:1005D000AE17BF07C8F30895AA1BBB1B51E107C0A4
:1005E000AA1FBB1FA617B70710F0A61BB70B881FC3
:1005F000991F5A95A9F780959095BC01CD01089552
:04060000F894FFCF9C
:100604004572726F7220202020202020202020207C
:1006140000554B4B20454C494E4420323031380074
:0E0624004A4152414B3D00636D2020202000D2
:00000001FF
