:100000000C9462000C948A000C948A000C948A0070
:100010000C948A000C948A000C948A000C948A0038
:100020000C948A000C948A000C948A000C948A0028
:100030000C948A000C948A000C948A000C948A0018
:100040000C946C050C948A000C94DC050C94B60599
:100050000C948A000C948A000C948A000C948A00F8
:100060000C940E060C948A00000000002300260069
:10007000290000000000240027002A0000000000E2
:10008000250028002B0004040404040404040202D4
:100090000202020203030303030301020408102007
:1000A0004080010204081020010204081020000012
:1000B0000008000201000003040700000000000027
:1000C00000006E0711241FBECFEFD8E0DEBFCDBF0A
:1000D00011E0A0E0B1E0E0EDF7E102C005900D9283
:1000E000AA39B107D9F722E0AAE9B1E001C01D920F
:1000F000AD3EB207E1F710E0C2E6D0E004C02197C0
:10010000FE010E94E00BC136D107C9F70E94B60775
:100110000C94E60B0C94000090E0FC01E255FF4FBC
:100120002491FC01E656FF4F3491FC01EA57FF4F42
:10013000E491EE23C9F0222339F0233001F1A8F431
:10014000213019F1223029F1F0E0EE0FFF1FE458C1
:10015000FF4FA591B4918FB7F894EC91611126C02F
:1001600030953E233C938FBF08952730A9F0283067
:10017000C9F0243049F7809180008F7D03C08091C1
:1001800080008F7780938000DFCF84B58F7784BD28
:10019000DBCF84B58F7DFBCF8091B0008F778093CC
:1001A000B000D2CF8091B0008F7DF9CF3E2BDACF57
:1001B000CF93DF9390E0FC01E656FF4F24918A57DE
:1001C0009F4FFC0184918823D1F090E0880F991F04
:1001D000FC01EE58FF4FA591B491FC01E458FF4F8C
:1001E000C591D49161110EC09FB7F8948C91E22F04
:1001F000E0958E238C932881E223E8839FBFDF91D3
:10020000CF9108958FB7F894EC91E22BEC938FBFC8
:10021000F6CF1F93CF93DF93182FEB0161E00E947D
:10022000D800209739F460E0812FDF91CF911F91A2
:100230000C948C00E12FF0E0E255FF4FE491E330A5
:1002400011F148F4E130B9F0E23069F784B5806229
:1002500084BDC8BD14C0E73001F1E83031F1E430AD
:1002600011F780918000806280938000D0938B0092
:10027000C0938A0004C084B5806884BDC7BDDF9187
:10028000CF911F91089580918000806880938000B5
:10029000D0938900C0938800F2CF8091B00080682D
:1002A0008093B000C093B300EACF8091B000806229
:1002B0008093B000C093B400E2CF3FB7F894809130
:1002C000340290913502A0913602B091370226B5E2
:1002D000A89B05C02F3F19F00196A11DB11D3FBF7E
:1002E000BA2FA92F982F8827BC01CD01620F711D4D
:1002F000811D911D42E0660F771F881F991F4A9547
:10030000D1F708958F929F92AF92BF92CF92DF92D2
:10031000EF92FF924B015C010E945D016B017C0139
:100320000E945D016C197D098E099F09683E73402A
:1003300081059105A8F321E0821A9108A108B1086E
:1003400088EEC80E83E0D81EE11CF11C81149104D4
:10035000A104B10429F7FF90EF90DF90CF90BF90F8
:10036000AF909F908F900895AF92BF92CF92DF92FF
:10037000EF92FF920F931F93CF93DF936C017B015A
:100380008B01040F151FEB015E01AE18BF08C017EB
:10039000D10759F06991D601ED91FC910190F0815E
:1003A000E02DC6010995892B79F7C501DF91CF9121
:1003B0001F910F91FF90EF90DF90CF90BF90AF9083
:1003C0000895FC01538D448D252F30E0842F90E05B
:1003D000821B930B541710F0CF9608950197089540
:1003E000FC01918D828D981761F0A28DAE0FBF2F09
:1003F000B11D5D968C91928D9F5F9F73928F90E05F
:1004000008958FEF9FEF0895FC01918D828D9817CD
:1004100031F0828DE80FF11D858D90E008958FEF0A
:100420009FEF0895FC01918D228D892F90E0805CD3
:100430009F4F821B91098F739927089588E392E05B
:100440000E94120221E0892B09F420E0822F0895F6
:1004500080E090E0892B29F00E941E0281110C940B
:1004600000000895FC01A48DA80FB92FB11DA35A57
:10047000BF4F2C91848D90E001968F739927848FC4
:10048000A689B7892C93A089B1898C9183708064E7
:100490008C93938D848D981306C00288F389E02D88
:1004A00080818F7D80830895EF92FF920F931F9339
:1004B000CF93DF93EC0181E0888F9B8D8C8D981317
:1004C0001AC0E889F989808185FF15C09FB7F89423
:1004D000EE89FF896083E889F9898081837080646F
:1004E00080839FBF81E090E0DF91CF911F910F91BA
:1004F000FF90EF900895F62E0B8D10E00F5F1F4FC9
:100500000F731127E02E8C8D8E110CC00FB607FCD7
:10051000FACFE889F989808185FFF5CFCE010E9465
:100520003202F1CFEB8DEC0FFD2FF11DE35AFF4F9F
:10053000F0829FB7F8940B8FEA89FB8980818062F3
:10054000CFCFCF93DF93EC01888D8823B9F0AA89B0
:10055000BB89E889F9898C9185FD03C0808186FD7E
:100560000DC00FB607FCF7CF8C9185FFF2CF8081CD
:1005700085FFEDCFCE010E943202E9CFDF91CF910E
:1005800008951F93CF93DF93C1E0C093C4018823E4
:1005900099F1D091B8001091BA008091BC008A7B8B
:1005A0008093BC0060E082E10E948C0060E083E107
:1005B0000E948C0010920902C0930B0210920A0252
:1005C00061E082E10E948C0061E083E10E948C0086
:1005D0008091B9008E7F8093B9008091B9008D7FA2
:1005E0008093B90088E48093B80085E48093BC00D0
:1005F0001093BA00D093B800DF91CF911F91089566
:100600002091E501260F3327331F21323105ECF409
:1006100020910902FC0190E080E0243069F082E042
:100620000895A091E5012191AC014B535E4FA40FB9
:10063000B52FB11D2C930196861798F38091E50193
:10064000680F6093E50180E0089581E008950895C2
:100650008FEF9FEF08958FEF9FEF08958091BE0178
:1006600090E09195819591090895CF92DF92EF9254
:10067000FF920F931F93CF93DF937C01CB018A01ED
:100680002091BD01222389F0EB016B01C40ED51E20
:10069000CC15DD0569F06991D701ED91FC910190D0
:1006A000F081E02DC7010995F3CF642F0E9400036C
:1006B000C801DF91CF911F910F91FF90EF90DF90D4
:1006C000CF900895CF93DF931F92CDB7DEB76983A4
:1006D0002091BD012223F9F02091BC01203258F075
:1006E00021E030E0FC013383228390E080E00F9032
:1006F000DF91CF9108958091BB01E82FF0E0E5569E
:10070000FE4F998190838F5F8093BB018093BC01E2
:1007100081E090E0ECCF61E0CE0101960E94000301
:10072000F7CFCF92DF92EF92FF920F931F93CF9369
:10073000DF93FC01C48121E02093BD01C0939A01A5
:100740001092BB011092BC018385682B85ED92E06D
:100750000E946203D091BC01D13208F092C00E9485
:100760005D016B017C0180910902811165C082E00D
:100770008093090281E080930B028FEF809308023F
:1007800010922D02D0932C02ABE9B1E0ECE0F2E044
:1007900080E0D81385C010922E0280912E02CC0FDB
:1007A000C82BC0932E0280910A02813009F07CC0D0
:1007B00010920A020E945D016B017C0180912E0261
:1007C0008093BB008091C0019091C101A091C201B2
:1007D000B091C301892B8A2B8B2B99F00E945D016C
:1007E0000091C0011091C1012091C2013091C3015B
:1007F0006C197D098E099F09061717072807390705
:10080000E0F18091BC0083FDD9CF85EC8093BC00E2
:100810000E945D016B017C0180910902823009F424
:1008200045C0809108028F3F61F1809108028032BB
:1008300041F18091080225C08091C0019091C101D1
:10084000A091C201B091C301892B8A2B8B2B09F493
:100850008ACF0E945D010091C0011091C1012091D9
:10086000C2013091C3016C197D098E099F090617D9
:1008700017072807390708F076CF8091BF010E943B
:10088000C1021092BB011092BC011092BD01DF9118
:10089000CF911F910F91FF90EF90DF90CF9008952F
:1008A0009D9191938F5F75CF85EEB0CF8091C00100
:1008B0009091C101A091C201B091C301892B8A2BF3
:1008C0008B2B09F4A9CF0E945D010091C00110910A
:1008D000C1012091C2013091C3016C197D098E09BB
:1008E0009F09061717072807390708F095CFC5CFC6
:1008F000089590E080E00895FC0101900020E9F760
:100900003197AF01481B590BBC0181EE92E00C946A
:10091000B4018F929F92AF92BF920F931F93CF9388
:10092000DF93CDB7DEB7A1970FB6F894DEBF0FBE49
:10093000CDBF19A2423008F44AE08E010F5D1F4F6F
:10094000842E912CB12CA12CA50194010E94F409B4
:10095000E62FB901CA01EA30F4F4E05DD801EE9364
:100960008D01232B242B252B79F790E080E0109725
:1009700019F0CD010E947C04A1960FB6F894DEBF59
:100980000FBECDBFDF91CF911F910F91BF90AF9060
:100990009F908F900895E95CE1CF0F931F93CF93C1
:1009A0008C01C62F0E9491036C2F6460C8010E94C5
:1009B00091036C2F6B7FC8010E94910383EC90E040
:1009C0000197F1F7CF911F910F9108950F931F9306
:1009D000CF93DF938C01D62FC42F607F642B0E94AE
:1009E000CD0480E1D89FB00111246C2BC801DF91A8
:1009F000CF911F910F910C94CD04CF93DF93CDB77E
:100A0000DEB728970FB6F894DEBF0FBECDBF98E0D3
:100A1000E0E0F1E0DE01119601900D929A95E1F788
:100A20009091E902981708F48FEF90E0880F991FD2
:100A300021E030E02C0F3D1F820F931FFC016081ED
:100A4000606840E081EE92E028960FB6F894DEBF31
:100A50000FBECDBFDF91CF910C94E60441E00E9420
:100A6000E60481E090E0089585ED8093BC008091DC
:100A7000C0019091C101A091C201B091C30107963C
:100A8000A11DB11D23E0B695A795979587952A9549
:100A9000D1F72091BC0024FD03C0109209020895F3
:100AA0004091C0015091C1016091C2017091C30198
:100AB000452B462B472B69F30097A105B10541F063
:100AC0002AE22A95F1F700C00197A109B109E1CF07
:100AD0008091BF010C94C1021F920F920FB60F922A
:100AE00011242F933F938F939F93AF93BF93809144
:100AF000300290913102A0913202B09133023091D4
:100B00002F0223E0230F2D3758F50196A11DB11DAB
:100B100020932F028093300290933102A0933202EF
:100B2000B09333028091340290913502A091360245
:100B3000B09137020196A11DB11D809334029093AC
:100B40003502A0933602B0933702BF91AF919F91C7
:100B50008F913F912F910F900FBE0F901F9018957E
:100B600026E8230F0296A11DB11DD2CF1F920F922E
:100B70000FB60F9211242F933F934F935F936F9370
:100B80007F938F939F93AF93BF93EF93FF9388E3EC
:100B900092E00E943202FF91EF91BF91AF919F913D
:100BA0008F917F916F915F914F913F912F910F9016
:100BB0000FBE0F901F9018951F920F920FB60F92B5
:100BC00011242F938F939F93EF93FF93E09148020B
:100BD000F09149028081E0914E02F0914F0282FD36
:100BE0001BC09081809151028F5F8F7320915202C0
:100BF000821741F0E0915102F0E0E85CFD4F958FE3
:100C000080935102FF91EF919F918F912F910F90BF
:100C10000FBE0F901F9018958081F4CF1F920F92F6
:100C20000FB60F9211242F933F934F935F936F93BF
:100C30007F938F939F93AF93BF93EF93FF93809195
:100C4000B900887F803609F44AC0F0F5883209F48B
:100C5000A5C018F5803109F499C0B8F4882309F4C7
:100C6000F5C0883009F492C0FF91EF91BF91AF9128
:100C70009F918F917F916F915F914F913F912F91B4
:100C80000F900FBE0F901F901895883109F486C001
:100C9000803251F78093080214C0803409F49BC05D
:100CA00040F48033B9F38833F9F68093080285EC79
:100CB000AEC0803509F483C0883509F494C0883407
:100CC00099F60E943405D0CF883909F48AC038F5E6
:100CD000883729F050F4883611F0803729F683E000
:100CE000809309021092070255C0883809F479C030
:100CF000803919F0803809F0B7CF8091070280322F
:100D000008F06FC0E091070281E08E0F8093070228
:100D10008091BB00F0E0E951FE4F80833BC0803BF7
:100D200039F0D0F4803A09F477C0883A09F09CCFC2
:100D300084E0809309021092E6011092E501F0E050
:100D4000E0E009958091E50181110FC081E0809379
:100D5000E5011092C50109C0803C09F4A8CF883C88
:100D600009F4A5CF883B09F07FCFE091E60181E04F
:100D70008E0F8093E601F0E0EB53FE4F808180936D
:100D8000BB009091E6018091E50129C080912E027F
:100D90008093BB0085EC8093BC0066CF90912D02C0
:100DA00080912C02981758F5E0912D0281E08E0F6A
:100DB00080932D02F0E0E45FFD4F8081E9CFE09168
:100DC0002D0281E08E0F80932D028091BB00F0E018
:100DD000E45FFD4F808390912D0280912C02981743
:100DE000C8F285E8D8CFE0912D0281E08E0F809384
:100DF0002D028091BB00F0E0E45FFD4F8083809185
:100E00000B0281115ECF81E080930A0284EA809315
:100E1000BC001092090228CF85EC8093BC00109290
:100E2000090280910702803230F4E0910702F0E07D
:100E3000E951FE4F10826091070270E087EE91E069
:100E4000F0E0E0E00995109207020ECF1092080240
:100E500038CFCF92DF92EF92FF920F931F93E82F3C
:100E6000F92F05C0015011092109310961F1908163
:100E700096239417B9F305C00150110921093109CE
:100E800011F1908196239413F7CFC12CD12CE12C32
:100E9000F12C0AC08FEFC81AD80AE80AF80A0C1514
:100EA0001D052E053F0579F080818623841791F377
:100EB0006C2D7D2D8E2D9F2D1F910F91FF90EF900A
:100EC000DF90CF90089560E070E080E090E01F91A7
:100ED0000F91FF90EF90DF90CF900895E8E3F2E05C
:100EE0001382128288EE93E0A0E0B0E084839583C1
:100EF000A683B7832CE031E03183208325EC30E0FA
:100F00003587248724EC30E03787268720EC30E0D3
:100F1000318B208B21EC30E0338B228B22EC30E0C4
:100F2000358B248B26EC30E0378B268B118E128E7E
:100F3000138E148EE5EDF2E0138212828483958382
:100F4000A683B7838EE191E091838083E1EEF2E0A6
:100F50001382128280E391E09183808387E284830D
:100F600080E1818782E0828713860895789484B532
:100F7000826084BD84B5816084BD85B5826085BD95
:100F800085B5816085BD80916E00816080936E0023
:100F90001092810080918100826080938100809115
:100FA00081008160809381008091800081608093C6
:100FB00080008091B10084608093B1008091B00086
:100FC00081608093B00080917A00846080937A0081
:100FD00080917A00826080937A0080917A008160AB
:100FE00080937A0080917A00806880937A001092D2
:100FF000C100E0914802F091490212E01083E091B3
:101000004402F09145021082E0914602F0914702BD
:101010008FEC808310925002E0914C02F0914D02CF
:1010200086E08083E0914A02F0914B0280818061EA
:101030008083E0914A02F0914B0280818860808336
:10104000E0914A02F0914B02808180688083E091B8
:101050004A02F0914B0280818F7D808361E089E0BC
:101060000E94D80060E08AE00E94D80061E085E03C
:101070000E94D80061E086E00E94D8008091E602DC
:1010800088608093E6021093E90262E370E080E0FA
:1010900090E00E9482016091EC0281EE92E00E9459
:1010A000910368EE73E080E090E00E94820160E3CB
:1010B00081EE92E00E94CD04CBE4D6E4CE0101970C
:1010C000F1F760E381EE92E00E94CD042197F1F701
:1010D00060E381EE92E00E94CD0483E592E0019707
:1010E000F1F760E281EE92E00E94CD046091E602A9
:1010F000606240E081EE92E00E94E60484E080932A
:10110000E70240E06CE081EE92E00E94E60440E0FD
:1011100061E081EE92E00E94E604CBE3DFE1CE01E4
:101120000197F1F71093E80240E066E081EE92E06B
:101130000E94E60440E062E081EE92E00E94E60454
:101140002197F1F788E391E00E947C0493E2292E35
:10115000312CC0E0D0E060E089E00E948C0083E0A8
:1011600090E00197F1F761E089E00E948C00C101F5
:101170000197F1F760E089E00E948C00E4EAF0E07A
:101180006491E0E9F0E08491E82FF0E0EE0FFF1FBA
:10119000E859FF4F8591949100E412E42FE030E08C
:1011A000462F0E942907611571058105910529F0D7
:1011B0006F5F7F4F8F4F9F4F9F700E94B70A26E946
:1011C00033E44BE05DE30E946E0B20E030E040E052
:1011D0005FE30E946E0B6B017C0181E00E94FD04C5
:1011E00083E491E00E947C0481E00E94FD04A70159
:1011F0009601C701B6010E94DB0B8823A1F180E5AF
:1012000091E00E947C048CE591E00E947C0420E047
:1012100030E040E251E4C701B6010E94830A87FF33
:101220009FC062E370E085E00E94090170E060E029
:1012300086E00E94090180E00E94FD0480E691E0C2
:101240000E947C0464EF71E080E090E00E948201E3
:10125000209709F480CF0E941E02882309F47BCFD7
:101260000E94000078CF2FEF3FEF4FE75FE7C70105
:10127000B6010E94DB0B81110DC02FEF3FEF4FE74E
:101280005FE7C701B6010E94830A18161CF484E5C3
:1012900091E0B7CF2FEF3FEF4FE75FE4C701B60113
:1012A0000E94690B18161CF488E591E0AACF2FEF75
:1012B0003FEF4FE75FECC701B6010E94830A87FD4D
:1012C000F3CF2AE037ED43EA5BE3C701B6010E94A2
:1012D000170A2B013C010E94880A4B015C010E9405
:1012E000B70A9B01AC01C301B2010E94160A2B018F
:1012F0003C014AE0C501B4010E94890441E06EE26C
:1013000081EE92E00E94E60420E030E040E251E409
:10131000C301B2010E946E0B2B013C010E94880A9E
:101320004B01B12CA12C4AE0C501B4010E948904F3
:10133000C501B4010E94B70A9B01AC01C301B2010F
:101340000E94160A20E030E040E251E40E946E0B59
:101350000E94880A90E080E04AE00E94890453CF0E
:1013600020E030E040EA51E4C701B6010E94690B79
:10137000181684F470E060E085E00E94090162E3E1
:1013800070E086E00E94090180E00E94FD0480E791
:1013900091E056CF20E030E040EA50E4C701B601CA
:1013A0000E94830A87FF10C070E060E085E00E9421
:1013B000090170E060E086E00E94090180E00E947F
:1013C000FD0480E891E03CCF62E370E085E00E949C
:1013D000090162E370E086E00E94090180E00E945A
:1013E000FD0489E891E02CCFA1E21A2EAA1BBB1BB9
:1013F000FD010DC0AA1FBB1FEE1FFF1FA217B307E1
:10140000E407F50720F0A21BB30BE40BF50B661FF6
:10141000771F881F991F1A9469F7609570958095BA
:1014200090959B01AC01BD01CF0108955058BB2799
:10143000AA270E942E0A0C942F0B0E94210B38F031
:101440000E94280B20F039F49F3F19F426F40C94E5
:101450001E0B0EF4E095E7FB0C94180BE92F0E948D
:10146000400B58F3BA17620773078407950720F0FB
:1014700079F4A6F50C94620B0EF4E0950B2EBA2FBE
:10148000A02D0B01B90190010C01CA01A00111248A
:10149000FF27591B99F0593F50F4503E68F11A1636
:1014A000F040A22F232F342F4427585FF3CF4695C7
:1014B00037952795A795F0405395C9F77EF41F16E9
:1014C000BA0B620B730B840BBAF09150A1F0FF0FB3
:1014D000BB1F661F771F881FC2F70EC0BA0F621F9F
:1014E000731F841F48F4879577956795B795F7958F
:1014F0009E3F08F0B0CF9395880F08F09927EE0F24
:101500009795879508950E94F40A08F481E008955C
:101510000E94480B88F09F5798F0B92F9927B75130
:10152000B0F0E1F0660F771F881F991F1AF0BA9587
:10153000C9F714C0B13091F00E94620BB1E0089578
:101540000C94620B672F782F8827B85F39F0B93F6A
:10155000CCF3869577956795B395D9F73EF490953A
:101560008095709561957F4F8F4F9F4F0895E894B8
:1015700009C097FB3EF490958095709561957F4FDB
:101580008F4F9F4F9923A9F0F92F96E9BB27939589
:10159000F695879577956795B795F111F8CFFAF499
:1015A000BB0F11F460FF1BC06F5F7F4F8F4F9F4FCA
:1015B00016C0882311F096E911C0772321F09EE828
:1015C000872F762F05C0662371F096E8862F70E08E
:1015D00060E02AF09A95660F771F881FDAF7880F68
:1015E0009695879597F90895990F0008550FAA0BBE
:1015F000E0E8FEEF16161706E807F907C0F0121626
:101600001306E407F50798F0621B730B840B950B28
:1016100039F40A2661F0232B242B252B21F408957D
:101620000A2609F4A140A6958FEF811D811D08951A
:1016300097F99F6780E870E060E008959FEF80EC85
:10164000089500240A941616170618060906089528
:1016500000240A9412161306140605060895092E8E
:101660000394000C11F4882352F0BB0F40F4BF2BFD
:1016700011F460FF04C06F5F7F4F8F4F9F4F08953D
:1016800057FD9058440F551F59F05F3F71F0479533
:10169000880F97FB991F61F09F3F79F08795089518
:1016A000121613061406551FF2CF4695F1DF08C037
:1016B000161617061806991FF1CF86957105610554
:1016C00008940895E894BB2766277727CB0197F9FC
:1016D00008950E94F40A08F48FEF08950E94810B88
:1016E0000C942F0B0E94210B38F00E94280B20F045
:1016F000952311F00C94180B0C941E0B11240C94D0
:10170000630B0E94400B70F3959FC1F3950F50E05F
:10171000551F629FF001729FBB27F00DB11D639FA3
:10172000AA27F00DB11DAA1F649F6627B00DA11D49
:10173000661F829F2227B00DA11D621F739FB00DEF
:10174000A11D621F839FA00D611D221F749F33275F
:10175000A00D611D231F849F600D211D822F762FF8
:101760006A2F11249F5750409AF0F1F088234AF0D5
:10177000EE0FFF1FBB1F661F771F881F9150504041
:10178000A9F79E3F510580F00C94180B0C94630B45
:101790005F3FE4F3983ED4F3869577956795B795C8
:1017A000F795E7959F5FC1F7FE2B880F911D9695E2
:1017B000879597F908950E94F40A880B990B08956C
:1017C000EE0FFF1F0590F491E02D0994F894FFCFE0
:1017D0000000400014005400000000005402B40156
:1017E000E101A1021202F001040200000000620304
:1017F0003503790427032E032B0328030000000080
:101800002E05B4017904780444697374616E6365CC
:101810003A200020202020202020202020202000EE
:101820006E616E00696E66006F76660020636D0003
:101830005475726E204C6566742020202020200094
:101840005475726E20526967687420202020200031
:1018500053544F502020202000476F205374726152
:0A1860006967687420202020000052
:00000001FF
