:020000040000FA
:100000000C9462000C948A000C948A000C948A0070
:100010000C948A000C948A000C948A000C948A0038
:100020000C948A000C948A000C948A000C948A0028
:100030000C948A000C948A000C948A000C948A0018
:100040000C9427040C948A000C948A000C948A0067
:100050000C948A000C948A000C948A000C948A00F8
:100060000C9471040C948A00000000080002010046
:100070000003040700000000000000000000000072
:10008000250028002B0000000000240027002A0083
:1000900000000000230026002900040404040404D6
:1000A0000404020202020202030303030303010227
:1000B00004081020408001020408102001020408F6
:1000C0001020D50511241FBECFEFD8E0DEBFCDBF75
:1000D00011E0A0E0B1E0EEE1F4E102C005900D9284
:1000E000AA34B107D9F722E0AAE4B1E001C01D9219
:1000F000A932B207E1F710E0C2E6D0E004C02197D0
:10010000FE010E94070AC136D107C9F70E94F50512
:100110000C940D0A0C94000008950895AF92BF92BC
:10012000CF92DF92EF92FF920F931F93CF93DF93C3
:100130006C017B018B01040F151FEB015E01AE18F2
:10014000BF08C017D10759F06991D601ED91FC9114
:100150000190F081E02DC6010995892B79F7C50141
:10016000DF91CF911F910F91FF90EF90DF90CF9093
:10017000BF90AF90089590E0FC01E859FF4F2491A3
:10018000FC01E255FF4F3491FC01E656FF4FE4912C
:10019000EE23C9F0222339F0233001F1A8F42130F5
:1001A00019F1223029F1F0E0EE0FFF1FE458FF4F64
:1001B000A591B4918FB7F894EC91611126C0309558
:1001C0003E233C938FBF08952730A9F02830C9F013
:1001D000243049F7809180008F7D03C0809180009A
:1001E0008F7780938000DFCF84B58F7784BDDBCF9E
:1001F00084B58F7DFBCF8091B0008F778093B00066
:10020000D2CF8091B0008F7DF9CF3E2BDACF3FB7B0
:10021000F8948091010290910202A0910302B091A2
:10022000040226B5A89B05C02F3F19F00196A11D19
:10023000B11D3FBFBA2FA92F982F8827BC01CD0130
:10024000620F711D811D911D42E0660F771F881F8F
:10025000991F4A95D1F708958F929F92AF92BF92BE
:10026000CF92DF92EF92FF924B015C010E94070157
:100270006B017C010E9407016C197D098E099F09A1
:10028000683E734081059105A8F321E0821A910828
:10029000A108B10888EEC80E83E0D81EE11CF11C4D
:1002A00081149104A104B10429F7FF90EF90DF902D
:1002B000CF90BF90AF909F908F9008950895209118
:1002C0008B01260F3327331F21323105ECF42091A7
:1002D000D401FC0190E080E0243069F082E00895D0
:1002E000A0918B012191AC0145595E4FA40FB52F10
:1002F000B11D2C930196861798F380918B01680F9E
:1003000060938B0180E0089581E008951092D401FC
:1003100081E08093D3011092AE0161E082E10E94FE
:10032000BB0061E083E10E94BB00E9EBF0E080816B
:100330008E7F808380818D7F808388E48093B80066
:1003400085E48093BC000895CF93DF9391E0909370
:100350006A018823B9F0C091B800D091BA008091A9
:10036000BC008A7B8093BC0060E082E10E94BB00FD
:1003700060E083E10E94BB000E948601D093BA0036
:10038000C093B800DF91CF9108950895E0910C02D9
:1003900080910B02E81730F4F0E0E65BFE4F8081BD
:1003A00090E008958FEF9FEF089590910C02809157
:1003B0000B022FEF3FEF981748F4E92FF0E0E65BD0
:1003C000FE4F208130E09F5F90930C02C901089599
:1003D00080910B0290910C02891B990B0895CF928A
:1003E000DF92EF92FF920F931F93CF93DF937C01E5
:1003F000CB018A012091DA01222389F0EB016B0104
:10040000C40ED51ECC15DD0569F06991D701ED91BB
:10041000FC910190F081E02DC7010995F3CF642F85
:100420000E945F01C801DF91CF911F910F91FF9052
:10043000EF90DF90CF900895CF93DF931F92CDB7C9
:10044000DEB769832091DA012223F9F020910902B5
:10045000203258F021E030E0FC013383228390E029
:1004600080E00F90DF91CF91089580910A02E82FEC
:10047000F0E0E552FE4F998190838F5F80930A02EE
:100480008093090281E090E0ECCF61E0CE0101961B
:100490000E945F01F7CFCF92DF92EF92FF920F930E
:1004A0001F93CF93DF93FC01C48121E02093DA01F5
:1004B000C093FB0110920A02109209028385682BF7
:1004C00081E192E00E941C02D0910902D13208F031
:1004D00092C00E9407016B017C018091D4018111BF
:1004E00065C082E08093D40181E08093D3018FEFD7
:1004F0008093D2011092D101D093D001ABEDB1E045
:10050000E0EBF1E080E0D81385C01092AF0180915C
:10051000AF01CC0FC82BC093AF018091AE018130E9
:1005200009F07CC01092AE010E9407016B017C01B2
:100530008091AF018093BB008091D6019091D7014B
:10054000A091D801B091D901892B8A2B8B2B99F0DE
:100550000E9407010091D6011091D7012091D80186
:100560003091D9016C197D098E099F09061717076B
:1005700028073907E0F18091BC0083FDD9CF85ECD5
:100580008093BC000E9407016B017C018091D40123
:10059000823009F445C08091D2018F3F61F1809192
:1005A000D201803241F18091D20125C08091D601E3
:1005B0009091D701A091D801B091D901892B8A2BB4
:1005C0008B2B09F48ACF0E9407010091D60110916C
:1005D000D7012091D8013091D9016C197D098E097C
:1005E0009F09061717072807390708F076CF80916B
:1005F000D5010E94A40110920A02109209021092E1
:10060000DA01DF91CF911F910F91FF90EF90DF9072
:10061000CF9008959D9191938F5F75CF85EEB0CF68
:100620008091D6019091D701A091D801B091D901C4
:10063000892B8A2B8B2B09F4A9CF0E9407010091EB
:10064000D6011091D7012091D8013091D9016C19B0
:100650007D098E099F09061717072807390708F033
:1006600095CFC5CF90E080E00895FC010190002077
:10067000E9F73197AF01481B590BBC018DE192E0BE
:100680000C948E008F929F92AF92BF920F931F9304
:10069000CF93DF93CDB7DEB7A1970FB6F894DEBF47
:1006A0000FBECDBF19A2423008F44AE08E010F5DA3
:1006B0001F4F842E912CB12CA12CA50194010E94D6
:1006C000E509E62FB901CA01EA30F4F4E05DD8018A
:1006D000EE938D01232B242B252B79F790E080E0DE
:1006E000109719F0CD010E943503A1960FB6F8942A
:1006F000DEBF0FBECDBFDF91CF911F910F91BF9095
:10070000AF909F908F900895E95CE1CF0F931F9376
:10071000CF938C01C62F0E944B026C2F6460C801DE
:100720000E944B026C2F6B7FC8010E944B0283EC2E
:1007300090E00197F1F7CF911F910F9108950F93DA
:100740001F93CF93DF938C01D62FC42F607F642B30
:100750000E94860380E1D89FB00111246C2BC80150
:10076000DF91CF911F910F910C948603CF93DF936C
:10077000CDB7DEB728970FB6F894DEBF0FBECDBF5A
:1007800098E0E0E0F1E0DE01119601900D929A957B
:10079000E1F790912502961708F46FEF262F30E0CD
:1007A000220F331F41E050E04C0F5D1F240F351F17
:1007B000F9016081680F606840E08DE192E0289661
:1007C0000FB6F894DEBF0FBECDBFDF91CF910C9472
:1007D0009F0341E00E949F0381E090E0089585ED32
:1007E0008093BC008091D6019091D701A091D8014F
:1007F000B091D9010796A11DB11D23E0B695A7952B
:10080000979587952A95D1F72091BC0024FD03C0C8
:100810001092D40108954091D6015091D701609172
:10082000D8017091D901452B462B472B69F30097CE
:10083000A105B10541F025E32A95F1F700000197E4
:10084000A109B109E1CF8091D5010C94A4011F92B7
:100850000F920FB60F9211242F933F938F939F9374
:10086000AF93BF938091FD019091FE01A091FF0194
:10087000B09100023091FC0123E0230F2D3758F591
:100880000196A11DB11D2093FC018093FD01909361
:10089000FE01A093FF01B0930002809101029091AC
:1008A0000202A0910302B09104020196A11DB11DA4
:1008B0008093010290930202A0930302B09304027A
:1008C000BF91AF919F918F913F912F910F900FBE4C
:1008D0000F901F90189526E8230F0296A11DB11DB9
:1008E000D2CF1F920F920FB60F9211242F933F93E6
:1008F0004F935F936F937F938F939F93AF93BF9328
:10090000EF93FF938091B900887F803609F44AC045
:10091000F0F5883209F4A7C018F5803109F49BC0BE
:10092000B8F4882309F4F9C0883009F494C0FF9121
:10093000EF91BF91AF919F918F917F916F915F9157
:100940004F913F912F910F900FBE0F901F901895D0
:10095000883109F488C0803251F78093D20114C0E5
:10096000803409F49DC040F48033B9F38833F9F63C
:100970008093D20185ECB0C0803509F485C08835FC
:1009800009F496C0883499F60E94EF03D0CF8839D5
:1009900009F48CC038F5883729F050F4883611F006
:1009A000803729F683E08093D4011092AD0157C0BF
:1009B000883809F47BC0803919F0803809F0B7CF46
:1009C0008091AD01803208F071C0E091AD0181E00D
:1009D0008E0F8093AD018091BB00F0E0E357FE4F96
:1009E00080833DC0803B39F0E0F4803A09F479C05F
:1009F000883A09F09CCF84E08093D40110928C0156
:100A000010928B01E0910702F09108020995809104
:100A10008B0181110FC081E080938B0110926B01DB
:100A200009C0803C09F4A6CF883C09F4A3CF883BD9
:100A300009F07DCFE0918C0181E08E0F80938C01D5
:100A4000F0E0E559FE4F80818093BB0090918C01CE
:100A500080918B0129C08091AF018093BB0085EC10
:100A60008093BC0064CF9091D1018091D001981700
:100A700058F5E091D10181E08E0F8093D101F0E033
:100A8000E055FE4F8081E9CFE091D10181E08E0FEA
:100A90008093D1018091BB00F0E0E055FE4F808350
:100AA0009091D1018091D0019817C8F285E8D8CFF4
:100AB000E091D10181E08E0F8093D1018091BB0044
:100AC000F0E0E055FE4F80838091D30181115CCF2F
:100AD00081E08093AE0184EA8093BC001092D4013F
:100AE00026CF85EC8093BC001092D4018091AD019B
:100AF000803230F4E091AD01F0E0E357FE4F108218
:100B00006091AD0170E0E0910502F09106028DE880
:100B100091E009951092AD010ACF1092D20134CF25
:100B2000CF92DF92EF92FF920F931F93E82FF92F4E
:100B300005C0015011092109310961F19081962305
:100B40009417B9F305C0015011092109310911F1B8
:100B5000908196239413F7CFC12CD12CE12CF12C4A
:100B60000AC08FEFC81AD80AE80AF80A0C151D0542
:100B70002E053F0579F080818623841791F36C2D33
:100B80007D2D8E2D9F2D1F910F91FF90EF90DF9067
:100B9000CF90089560E070E080E090E01F910F91A9
:100BA000FF90EF90DF90CF900895E1E1F2E01382A3
:100BB000128288EE93E0A0E0B0E084839583A68360
:100BC000B7838CE091E091838083EDE1F2E01382C2
:100BD00012828EE191E09183808387E2848380E1B9
:100BE000818782E0828713860895789484B5826035
:100BF00084BD84B5816084BD85B5826085BD85B5C1
:100C0000816085BD80916E00816080936E0010923E
:100C100081008091810082608093810080918100B9
:100C2000816080938100809180008160809380004A
:100C30008091B10084608093B1008091B0008160A8
:100C40008093B00080917A00846080937A008091D4
:100C50007A00826080937A0080917A00816080932C
:100C60007A0080917A00806880937A001092C100A7
:100C7000E8EBF0E0249154EA252E50E0352EF10106
:100C800084918823C1F090E0880F991FFC01EA57F6
:100C9000FF4FA591B491FC01E458FF4FC591D49149
:100CA0003FB7F8949C91822F809598239C939881CC
:100CB000892388833FBFE7EBF0E02491E3EAF0E08B
:100CC0008491882399F090E0880F991FFC01EA57DE
:100CD000FF4FA591B491FC01E458FF4F8591949189
:100CE0008FB7F894EC91E22BEC938FBF10920C022B
:100CF00010920B0210920A02109209020E948601C1
:100D00008CE890E090930802809307028DE890E0D1
:100D1000909306028093050210922202809127028E
:100D2000823018F098E0909322028093250262E3CB
:100D300070E080E090E00E942C01609128028DE13B
:100D400092E00E944B0268EE73E080E090E00E9427
:100D50002C0160E38DE192E00E948603CBE4D6E4AF
:100D6000CE010197F1F760E38DE192E00E948603E6
:100D70002197F1F760E38DE192E00E94860383E51D
:100D800092E00197F1F760E28DE192E00E94860324
:100D900060912202606240E08DE192E00E949F0338
:100DA00084E08093230240E06CE08DE192E00E94B9
:100DB0009F0340E061E08DE192E00E949F03CBE35E
:100DC000DFE1CE010197F1F782E08093240240E059
:100DD00066E08DE192E00E949F0340E062E08DE1D9
:100DE00092E00E949F03CE010197F1F788E0809383
:100DF000280260E08DE192E00E944B0260E081E019
:100E00000E94B60386E291E00E94350368EC70E030
:100E100080E090E00E942C0160E083E00E94B60335
:100E200081E391E00E94350368EC70E080E090E09F
:100E30000E942C0140E061E08DE192E00E949F035E
:100E40002197F1F760E080E00E94B6038BE291E029
:100E50000E943503C3E0D0E093E2A92EB12C20E03C
:100E6000822E20E0922E60E089E00E94BB00CE013D
:100E70000197F1F761E089E00E94BB00C50101978D
:100E8000F1F760E089E00E94BB00E8EBF0E06491DC
:100E9000F1018491E82FF0E0EE0FFF1FE057FF4FC4
:100EA0008591949100E412E42FE030E0462F0E94F7
:100EB0009005611571058105910529F06F5F7F4FE0
:100EC0008F4F9F4F9F7090E080E00E94BC0826E902
:100ED00033E44BE05DE30E94730920E030E040E042
:100EE0005FE30E9473096B017C01C0920D02D092F6
:100EF0000E02E0920F02F092100261E086E00E9482
:100F0000B603A7019601C701B6010E94E009882334
:100F1000A9F089E391E00E94350385E491E00E9405
:100F2000350368EC70E080E090E00E942C018114B1
:100F3000910409F498CF0E94000095CF2FEF3FEF66
:100F40004FE75FE7C701B6010E94E00981110DC0BC
:100F50002FEF3FEF4FE75FE7C701B6010E94880818
:100F600018161CF48DE391E0D6CF2FEF3FEF4FE73B
:100F70005FE4C701B6010E946E0918161CF481E4F3
:100F800091E0C9CF2FEF3FEF4FE75FECC701B6010C
:100F90000E94880887FDF3CF2AE037ED43EA5BE340
:100FA000C701B6010E941C082B013C010E948D085C
:100FB0006B017C010E94BC089B01AC01C301B20122
:100FC0000E941B082B013C014AE0C701B6010E94A8
:100FD000420341E06EE28DE192E00E949F0320E037
:100FE00030E040E251E4C301B2010E9473092B01D9
:100FF0003C010E948D086B01F12CE12C4AE0C701F5
:10100000B6010E944203C701B6010E94BC089B01C1
:10101000AC01C301B2010E941B0820E030E040E2B5
:1010200051E40E9473090E948D0890E080E04AE03C
:101030000E94420372CF5058BB27AA270E94330850
:101040000C9434090E94260938F00E942D0920F0E2
:1010500039F49F3F19F426F40C9423090EF4E0951B
:10106000E7FB0C941D09E92F0E94450958F3BA17B4
:10107000620773078407950720F079F4A6F50C94AE
:1010800067090EF4E0950B2EBA2FA02D0B01B901C4
:1010900090010C01CA01A0011124FF27591B99F0EE
:1010A000593F50F4503E68F11A16F040A22F232FFA
:1010B000342F4427585FF3CF469537952795A7954A
:1010C000F0405395C9F77EF41F16BA0B620B730BF1
:1010D000840BBAF09150A1F0FF0FBB1F661F771F62
:1010E000881FC2F70EC0BA0F621F731F841F48F417
:1010F000879577956795B795F7959E3F08F0B0CFA0
:101100009395880F08F09927EE0F97958795089586
:101110000E94F90808F481E008950E944D0988F0C2
:101120009F5798F0B92F9927B751B0F0E1F0660FAB
:10113000771F881F991F1AF0BA95C9F714C0B130EC
:1011400091F00E946709B1E008950C946709672F38
:10115000782F8827B85F39F0B93FCCF3869577951B
:101160006795B395D9F73EF4909580957095619504
:101170007F4F8F4F9F4F0895E89409C097FB3EF42F
:1011800090958095709561957F4F8F4F9F4F9923D4
:10119000A9F0F92F96E9BB279395F6958795779552
:1011A0006795B795F111F8CFFAF4BB0F11F460FF12
:1011B0001BC06F5F7F4F8F4F9F4F16C0882311F06A
:1011C00096E911C0772321F09EE8872F762F05C07E
:1011D000662371F096E8862F70E060E02AF09A9519
:1011E000660F771F881FDAF7880F9695879597F90E
:1011F0000895990F0008550FAA0BE0E8FEEF1616A8
:101200001706E807F907C0F012161306E407F507FA
:1012100098F0621B730B840B950B39F40A2661F06E
:10122000232B242B252B21F408950A2609F4A14011
:10123000A6958FEF811D811D089597F99F6780E81E
:1012400070E060E008959FEF80EC089500240A9418
:101250001616170618060906089500240A94121691
:101260001306140605060895092E0394000C11F4C4
:10127000882352F0BB0F40F4BF2B11F460FF04C071
:101280006F5F7F4F8F4F9F4F089557FD9058440FCA
:10129000551F59F05F3F71F04795880F97FB991FD5
:1012A00061F09F3F79F08795089512161306140692
:1012B000551FF2CF4695F1DF08C01616170618061F
:1012C000991FF1CF86957105610508940895E894FA
:1012D000BB2766277727CB0197F908950E94F90865
:1012E00008F48FEF08950E9486090C9434090E9437
:1012F000260938F00E942D0920F0952311F00C9456
:101300001D090C94230911240C9468090E944509B5
:1013100070F3959FC1F3950F50E0551F629FF00148
:10132000729FBB27F00DB11D639FAA27F00DB11D61
:10133000AA1F649F6627B00DA11D661F829F2227EA
:10134000B00DA11D621F739FB00DA11D621F839F71
:10135000A00D611D221F749F3327A00D611D231F47
:10136000849F600D211D822F762F6A2F11249F5795
:1013700050409AF0F1F088234AF0EE0FFF1FBB1F98
:10138000661F771F881F91505040A9F79E3F510557
:1013900080F00C941D090C9468095F3FE4F3983EBB
:1013A000D4F3869577956795B795F795E7959F5F01
:1013B000C1F7FE2B880F911D9695879597F9089593
:1013C0000E94F908880B990B0895A1E21A2EAA1B16
:1013D000BB1BFD010DC0AA1FBB1FEE1FFF1FA217E5
:1013E000B307E407F50720F0A21BB30BE40BF50BE2
:1013F000661F771F881F991F1A9469F7609570956B
:10140000809590959B01AC01BD01CF010895EE0F31
:10141000FF1F0590F491E02D0994F894FFCF000090
:10142000400014005400000000001C02EF013203D1
:10143000C501E801D501C60100000000E9038E00E6
:1014400032035E01756B7572206A6172616B0048D0
:10145000432053523430006E616E00696E66006F37
:0814600076660020434D2000D8
:107E0000112484B714BE81FFF0D085E080938100F7
:107E100082E08093C00088E18093C10086E0809377
:107E2000C20080E18093C4008EE0C9D0259A86E02C
:107E300020E33CEF91E0309385002093840096BBD3
:107E4000B09BFECF1D9AA8958150A9F7CC24DD24C4
:107E500088248394B5E0AB2EA1E19A2EF3E0BF2EE7
:107E6000A2D0813461F49FD0082FAFD0023811F036
:107E7000013811F484E001C083E08DD089C08234E0
:107E800011F484E103C0853419F485E0A6D080C0E4
:107E9000853579F488D0E82EFF2485D0082F10E0AE
:107EA000102F00270E291F29000F111F8ED06801E7
:107EB0006FC0863521F484E090D080E0DECF843638
:107EC00009F040C070D06FD0082F6DD080E0C81688
:107ED00080E7D80618F4F601B7BEE895C0E0D1E017
:107EE00062D089930C17E1F7F0E0CF16F0E7DF06D8
:107EF00018F0F601B7BEE89568D007B600FCFDCFD4
:107F0000A601A0E0B1E02C9130E011968C91119780
:107F100090E0982F8827822B932B1296FA010C0160
:107F200087BEE89511244E5F5F4FF1E0A038BF0790
:107F300051F7F601A7BEE89507B600FCFDCF97BE46
:107F4000E89526C08437B1F42ED02DD0F82E2BD052
:107F50003CD0F601EF2C8F010F5F1F4F84911BD097
:107F6000EA94F801C1F70894C11CD11CFA94CF0C13
:107F7000D11C0EC0853739F428D08EE10CD085E9AC
:107F80000AD08FE07ACF813511F488E018D01DD067
:107F900080E101D065CF982F8091C00085FFFCCF94
:107FA0009093C60008958091C00087FFFCCF809118
:107FB000C00084FD01C0A8958091C6000895E0E648
:107FC000F0E098E1908380830895EDDF803219F02E
:107FD00088E0F5DFFFCF84E1DECF1F93182FE3DFCA
:107FE0001150E9F7F2DF1F91089580E0E8DFEE27F6
:047FF000FF270994CA
:027FFE00040479
:00000001FF
