:100000000C9462000C948A000C948A000C948A0070
:100010000C948A000C948A000C948A000C948A0038
:100020000C948A000C948A000C948A000C948A0028
:100030000C948A000C948A000C948A000C948A0018
:100040000C9491050C948A000C945F050C9439056E
:100050000C948A000C948A000C948A000C948A00F8
:100060000C94DB050C948A0000000000240027009B
:100070002A0000000000250028002B0000000000DE
:1000800023002600290004040404040404040202DA
:100090000202020203030303030301020408102007
:1000A0004080010204081020010204081020000012
:1000B0000008000201000003040700000000000027
:1000C00000003F0711241FBECFEFD8E0DEBFCDBF39
:1000D00011E0A0E0B1E0E0E7F8E102C005900D9288
:1000E000A035B107D9F722E0A0E5B1E001C01D922B
:1000F000AE3CB207E1F710E0C2E6D0E004C02197C1
:10010000FE010E94300CC136D107C9F70E94870753
:100110000C94360C0C94000008950895AF92BF9291
:10012000CF92DF92EF92FF920F931F93CF93DF93C3
:100130006C017B018B01040F151FEB015E01AE18F2
:10014000BF08C017D10759F06991D601ED91FC9114
:100150000190F081E02DC6010995892B79F7C50141
:10016000DF91CF911F910F91FF90EF90DF90CF9093
:10017000BF90AF900895FC01538D448D252F30E042
:10018000842F90E0821B930B541710F0CF960895A4
:1001900001970895FC01918D828D981761F0A28DD1
:1001A000AE0FBF2FB11D5D968C91928D9F5F9F7397
:1001B000928F90E008958FEF9FEF0895FC01918D4D
:1001C000828D981731F0828DE80FF11D858D90E0BA
:1001D00008958FEF9FEF0895FC01918D228D892F57
:1001E00090E0805C9F4F821B91098F73992708953F
:1001F00089E192E00E94EC0021E0892B09F420E0E3
:10020000822F089580E090E0892B29F00E94F80069
:1002100081110C9400000895FC01A48DA80FB92F42
:10022000B11DA35ABF4F2C91848D90E001968F731E
:100230009927848FA689B7892C93A089B1898C913D
:10024000837080648C93938D848D981306C002888C
:10025000F389E02D80818F7D80830895EF92FF9256
:100260000F931F93CF93DF93EC0181E0888F9B8DD9
:100270008C8D98131AC0E889F989808185FF15C093
:100280009FB7F894EE89FF896083E889F9898081B6
:100290008370806480839FBF81E090E0DF91CF9185
:1002A0001F910F91FF90EF900895F62E0B8D10E0A7
:1002B0000F5F1F4F0F731127E02E8C8D8E110CC016
:1002C0000FB607FCFACFE889F989808185FFF5CF61
:1002D000CE010E940C01F1CFEB8DEC0FFD2FF11D33
:1002E000E35AFF4FF0829FB7F8940B8FEA89FB899E
:1002F00080818062CFCFCF93DF93EC01888D8823FC
:10030000B9F0AA89BB89E889F9898C9185FD03C078
:10031000808186FD0DC00FB607FCF7CF8C9185FF5D
:10032000F2CF808185FFEDCFCE010E940C01E9CF95
:10033000DF91CF91089590E0FC01E255FF4F2491A9
:10034000FC01E656FF4F3491FC01EA57FF4FE49160
:10035000EE23C9F0222339F0233001F1A8F4213033
:1003600019F1223029F1F0E0EE0FFF1FEE58FF4F98
:10037000A591B4918FB7F894EC91611126C0309596
:100380003E233C938FBF08952730A9F02830C9F051
:10039000243049F7809180008F7D03C080918000D8
:1003A0008F7780938000DFCF84B58F7784BDDBCFDC
:1003B00084B58F7DFBCF8091B0008F778093B000A4
:1003C000D2CF8091B0008F7DF9CF3E2BDACFCF9383
:1003D000DF9390E0FC01E656FF4F24918A579F4F30
:1003E000FC0184918823D1F090E0880F991FFC01D3
:1003F000E859FF4FA591B491FC01EE58FF4FC5910C
:10040000D49161110EC09FB7F8948C91E22FE095C2
:100410008E238C932881E223E8839FBFDF91CF91C5
:1004200008958FB7F894EC91E22BEC938FBFF6CF41
:100430003FB7F8948091070290910802A0910902B9
:10044000B0910A0226B5A89B05C02F3F19F001966E
:10045000A11DB11D3FBFBA2FA92F982F8827BC011E
:10046000CD01620F711D811D911D42E0660F771F46
:10047000881F991F4A95D1F708958F929F92AF9246
:10048000BF92CF92DF92EF92FF924B015C010E94EC
:1004900018026B017C010E9418026C197D098E09FB
:1004A0009F09683E734081059105A8F321E0821AF7
:1004B0009108A108B10888EEC80E83E0D81EE11C9F
:1004C000F11C81149104A104B10429F7FF90EF906D
:1004D000DF90CF90BF90AF909F908F900895089538
:1004E00020919101260F3327331F21323105ECF47F
:1004F0002091DA01FC0190E080E0243069F082E094
:100500000895A09191012191AC014F585E4FA40F25
:10051000B52FB11D2C930196861798F38091910108
:10052000680F6093910180E0089581E00895109232
:10053000DA0181E08093D9011092B40161E082E197
:100540000E949B0161E083E10E949B01E9EBF0E0E6
:1005500080818E7F808380818D7F808388E48093FB
:10056000B80085E48093BC000895CF93DF9391E0B9
:10057000909370018823B9F0C091B800D091BA006F
:100580008091BC008A7B8093BC0060E082E10E9485
:100590009B0160E083E10E949B010E949702D0933F
:1005A000BA00C093B800DF91CF9108950895E0910B
:1005B000120280911102E81730F4F0E0E05BFE4F88
:1005C000808190E008958FEF9FEF0895909112023F
:1005D000809111022FEF3FEF981748F4E92FF0E0D8
:1005E000E05BFE4F208130E09F5F90931202C901D3
:1005F00008958091110290911202891B990B089520
:10060000CF92DF92EF92FF920F931F93CF93DF93DE
:100610007C01CB018A012091E001222389F0EB01CA
:100620006B01C40ED51ECC15DD0569F06991D701AB
:10063000ED91FC910190F081E02DC7010995F3CF78
:10064000642F0E947002C801DF91CF911F910F911A
:10065000FF90EF90DF90CF900895CF93DF931F929C
:10066000CDB7DEB769832091E0012223F9F0209114
:100670000F02203258F021E030E0FC013383228366
:1006800090E080E00F90DF91CF910895809110026B
:10069000E82FF0E0EF51FE4F998190838F5F8093B8
:1006A000100280930F0281E090E0ECCF61E0CE0178
:1006B00001960E947002F7CFCF92DF92EF92FF92E5
:1006C0000F931F93CF93DF93FC01C48121E020930C
:1006D000E001C09301021092100210920F02838574
:1006E000682B86EB92E00E942D03D0910F02D1324D
:1006F00008F092C00E9418026B017C018091DA011F
:10070000811165C082E08093DA0181E08093D90194
:100710008FEF8093D8011092D701D093D601A1EE2C
:10072000B1E0E6EBF1E080E0D81385C01092B501AE
:100730008091B501CC0FC82BC093B5018091B40155
:10074000813009F07CC01092B4010E9418026B0144
:100750007C018091B5018093BB008091DC01909178
:10076000DD01A091DE01B091DF01892B8A2B8B2B5B
:1007700099F00E9418020091DC011091DD01209196
:10078000DE013091DF016C197D098E099F09061782
:10079000170728073907E0F18091BC0083FDD9CF06
:1007A00085EC8093BC000E9418026B017C01809153
:1007B000DA01823009F445C08091D8018F3F61F1A0
:1007C0008091D801803241F18091D80125C080917B
:1007D000DC019091DD01A091DE01B091DF01892B58
:1007E0008A2B8B2B09F48ACF0E9418020091DC011E
:1007F0001091DD012091DE013091DF016C197D093E
:100800008E099F09061717072807390708F076CFC2
:100810008091DB010E94B5021092100210920F022B
:100820001092E001DF91CF911F910F91FF90EF9017
:10083000DF90CF9008959D9191938F5F75CF85EE56
:10084000B0CF8091DC019091DD01A091DE01B091EB
:10085000DF01892B8A2B8B2B09F4A9CF0E94180268
:100860000091DC011091DD012091DE013091DF016A
:100870006C197D098E099F09061717072807390784
:1008800008F095CFC5CF90E080E008950F931F93B7
:10089000CF938C01C62F0E945C036C2F6460C8014B
:1008A0000E945C036C2F6B7FC8010E945C0383EC89
:1008B00090E00197F1F7CF911F910F9108950F9359
:1008C0001F93CF93DF938C01D62FC42F607F642BAF
:1008D0000E94460480E1D89FB00111246C2BC8010E
:1008E000DF91CF911F910F910C944604682F60689F
:1008F00040E082EC92E00C945F0441E00E945F04CF
:1009000081E090E00895FB0101900020E9F7319724
:10091000AF01461B570BDC01ED91FC910280F38186
:10092000E02D09948F929F92AF92BF92EF92FF9227
:100930000F931F93CF93DF93CDB7DEB7A1970FB679
:10094000F894DEBF0FBECDBF7C01FA01CB0119A226
:10095000223008F42AE08E010F5D1F4F822E912C69
:10096000B12CA12CBF01A50194010E94EF0BF9014C
:10097000CA016A300CF5605DD8016E938D01232B9E
:10098000242B252B79F790E080E0109721F0BD0112
:10099000C7010E948304A1960FB6F894DEBF0FBE74
:1009A000CDBFDF91CF911F910F91FF90EF90BF903E
:1009B000AF909F908F900895695CDECFCF92DF92C9
:1009C000EF92FF92CF93DF936B017C016DE289E19F
:1009D00092E00E942E01EC0144275527BA014C19E0
:1009E0005D096E097F092AE089E192E00E94920484
:1009F0008C0F9D1FDF91CF91FF90EF90DF90CF90F4
:100A0000089585ED8093BC008091DC019091DD011B
:100A1000A091DE01B091DF010796A11DB11D23E079
:100A2000B695A795979587952A95D1F72091BC0003
:100A300024FD03C01092DA0108954091DC01509129
:100A4000DD016091DE017091DF01452B462B472BC4
:100A500069F30097A105B10541F025E32A95F1F767
:100A600000000197A109B109E1CF8091DB010C944D
:100A7000B5021F920F920FB60F9211242F933F933E
:100A80004F935F936F937F938F939F93AF93BF9396
:100A9000EF93FF9389E192E00E940C01FF91EF91A7
:100AA000BF91AF919F918F917F916F915F914F9186
:100AB0003F912F910F900FBE0F901F9018951F928E
:100AC0000F920FB60F9211242F938F939F93EF9352
:100AD000FF93E0912902F0912A028081E0912F0298
:100AE000F091300282FD1BC09081809132028F5FB5
:100AF0008F7320913302821741F0E0913202F0E0CF
:100B0000E75EFD4F958F80933202FF91EF919F91A9
:100B10008F912F910F900FBE0F901F90189580818D
:100B2000F4CF1F920F920FB60F9211242F933F9381
:100B30008F939F93AF93BF93809103029091040290
:100B4000A0910502B09106023091020223E0230F2A
:100B50002D3758F50196A11DB11D209302028093F7
:100B6000030290930402A0930502B09306028091C1
:100B7000070290910802A0910902B0910A02019621
:100B8000A11DB11D8093070290930802A093090252
:100B9000B0930A02BF91AF919F918F913F912F9196
:100BA0000F900FBE0F901F90189526E8230F029606
:100BB000A11DB11DD2CF1F920F920FB60F9211241B
:100BC0002F933F934F935F936F937F938F939F9355
:100BD000AF93BF93EF93FF938091B900887F8036E6
:100BE00009F44AC0F0F5883209F4A7C018F580313D
:100BF00009F49BC0B8F4882309F4F9C0883009F4DB
:100C000094C0FF91EF91BF91AF919F918F917F9190
:100C10006F915F914F913F912F910F900FBE0F9069
:100C20001F901895883109F488C0803251F780935D
:100C3000D80114C0803409F49DC040F48033B9F366
:100C40008833F9F68093D80185ECB0C0803509F47B
:100C500085C0883509F496C0883499F60E9401054C
:100C6000D0CF883909F48CC038F5883729F050F492
:100C7000883611F0803729F683E08093DA011092EC
:100C8000B30157C0883809F47BC0803919F0803827
:100C900009F0B7CF8091B301803208F071C0E091C4
:100CA000B30181E08E0F8093B3018091BB00F0E02F
:100CB000ED56FE4F80833DC0803B39F0E0F4803A32
:100CC00009F479C0883A09F09CCF84E08093DA0176
:100CD0001092920110929101E0910D02F0910E029A
:100CE00009958091910181110FC081E0809391015C
:100CF0001092710109C0803C09F4A6CF883C09F428
:100D0000A3CF883B09F07DCFE091920181E08E0F67
:100D100080939201F0E0EF58FE4F80818093BB00FA
:100D2000909192018091910129C08091B5018093A9
:100D3000BB0085EC8093BC0064CF9091D70180917B
:100D4000D601981758F5E091D70181E08E0F809376
:100D5000D701F0E0EA54FE4F8081E9CFE091D7015E
:100D600081E08E0F8093D7018091BB00F0E0EA54C0
:100D7000FE4F80839091D7018091D6019817C8F2D9
:100D800085E8D8CFE091D70181E08E0F8093D7011D
:100D90008091BB00F0E0EA54FE4F80838091D9013E
:100DA00081115CCF81E08093B40184EA8093BC0020
:100DB0001092DA0126CF85EC8093BC001092DA0104
:100DC0008091B301803230F4E091B301F0E0ED5650
:100DD000FE4F10826091B30170E0E0910B02F09140
:100DE0000C0283E991E009951092B3010ACF1092A9
:100DF000D80134CFCF92DF92EF92FF920F931F93DF
:100E0000E82FF92F05C0015011092109310961F1BD
:100E1000908196239417B9F305C001501109210957
:100E2000310911F1908196239413F7CFC12CD12C65
:100E3000E12CF12C0AC08FEFC81AD80AE80AF80A88
:100E40000C151D052E053F0579F08081862384173A
:100E500091F36C2D7D2D8E2D9F2D1F910F91FF9065
:100E6000EF90DF90CF90089560E070E080E090E038
:100E70001F910F91FF90EF90DF90CF900895E9E1DF
:100E8000F2E01382128288EE93E0A0E0B0E0848367
:100E90009583A683B78324E031E03183208325EC5A
:100EA00030E03587248724EC30E03787268720EC34
:100EB00030E0318B208B21EC30E0338B228B22EC25
:100EC00030E0358B248B26EC30E0378B268B118E6F
:100ED000128E138E148EE6EBF2E01382128284835C
:100EE0009583A683B78386E191E091838083E2ECCA
:100EF000F2E01382128288E291E09183808387E29C
:100F0000848380E1818782E08287138608957894C4
:100F100084B5826084BD84B5816084BD85B58260FE
:100F200085BD85B5816085BD80916E0081608093AF
:100F30006E00109281008091810082608093810018
:100F40008091810081608093810080918000816028
:100F5000809380008091B10084608093B100809183
:100F6000B00081608093B00080917A0084608093AB
:100F70007A0080917A00826080937A0080917A0072
:100F8000816080937A0080917A00806880937A00F3
:100F90001092C100E0912902F0912A0282E0808340
:100FA000E0912502F09126021082E0912702F09153
:100FB00028028FEC808310923102E0912D02F09193
:100FC0002E0286E08083E0912B02F0912C0280813A
:100FD00080618083E0912B02F0912C0280818860F7
:100FE0008083E0912B02F0912C02808180688083C5
:100FF000E0912B02F0912C0280818F7D808360E054
:101000008EE00E94E70161E08FE00E94E70161E06D
:1010100089E00E94E70161E086E00E94E70161E06B
:1010200085E00E94E70161E083E00E94E701109201
:101030001202109211021092100210920F020E94DE
:1010400097028CE890E090930E0280930D028DE859
:1010500090E090930C0280930B021092C702809153
:10106000CC02823018F098E09093C7028093CA02B5
:1010700062E370E080E090E00E943D026091CD026A
:1010800082EC92E00E945C0368EE73E080E090E006
:101090000E943D0260E382EC92E00E944604CBE4B1
:1010A000D6E4CE010197F1F760E382EC92E00E9472
:1010B00046042197F1F760E382EC92E00E94460437
:1010C00083E592E00197F1F760E282EC92E00E9402
:1010D00046046091C702606240E082EC92E00E94A8
:1010E0005F0484E08093C80240E06CE082EC92E010
:1010F0000E945F0440E061E082EC92E00E945F04A5
:10110000CBE3DFE1CE010197F1F782E08093C902E2
:1011100040E066E082EC92E00E945F0440E062E022
:1011200082EC92E00E945F042197F1F788E08093BF
:10113000CD0260E082EC92E00E945C0380E00E94BD
:10114000760460E371E082EC92E00E94830493E213
:10115000292E312C2AE3422E512C612C712CC0E017
:10116000D0E060E08FE00E949B0183E090E0019777
:10117000F1F761E08FE00E949B01C1010197F1F757
:1011800060E08FE00E949B01E8EAF0E06491E4E90E
:10119000F0E08491E82FF0E0EE0FFF1FE458FF4FDE
:1011A0008591949100E412E42FE030E0462F0E94F4
:1011B000FA06611571058105910529F06F5F7F4F72
:1011C0008F4F9F4F9F70709318026093170290E0AB
:1011D00080E00E94C60A26E933E44BE05DE30E940A
:1011E0007D0B20E030E040E05FE30E947D0B6B016F
:1011F0007C01C0921302D0921402E0921502F09288
:10120000160286E00E947604A7019601C701B60186
:101210000E94EA0B66E371E0811117C02FEF3FEFE8
:101220004FE75FE7C701B6010E94EA0B811193C047
:101230002FEF3FEF4FE75FE7C701B6010E94920A29
:1012400018160CF088C06AE371E082EC92E00E940C
:10125000830462E471E082EC92E00E94830468EC13
:1012600070E080E090E00E943D02C0901702D090B4
:101270001802F12CE12CC701B60124E930E040E06E
:1012800050E00E94110CBA01A9012AE089E192E024
:101290000E94920465E471E089E192E00E94830477
:1012A000C701B601A30192010E94110CBA01A90164
:1012B0002AE089E192E00E94920469E471E089E108
:1012C00092E00E9483046CE471E089E192E00E9464
:1012D000830468EC70E080E090E00E943D0220E032
:1012E00030E040EF51E4609113027091140280915C
:1012F0001502909116020E94920A61E018160CF4F1
:1013000097C089E00E94E70161E089E00E949B01AB
:1013100061E086E00E94E70160E086E00E949B01B8
:1013200061E085E00E94E70160E085E00E949B01AA
:1013300061E083E00E94E70161E083E00E949B019D
:10134000209709F40ECF0E94F800882309F409CFF2
:101350000E94000006CF2FEF3FEF4FE75FE4C70189
:10136000B6010E94780B18161CF46EE371E06DCF85
:101370002FEF3FEF4FE75FECC701B6010E94920AE3
:1013800087FDF3CF2AE037ED43EA5BE3C701B601FF
:101390000E94260A4B015C010E94970A6B017C01A6
:1013A0000E94C60A9B01AC01C501B4010E94250A36
:1013B0004B015C012AE0B701A60182EC92E00E9499
:1013C000920441E06EE282EC92E00E945F0420E031
:1013D00030E040E251E4C501B4010E947D0B4B01B5
:1013E0005C010E94970A6B01F12CE12C2AE0B70105
:1013F000A60182EC92E00E949204C701B6010E940D
:10140000C60A9B01AC01C501B4010E94250A20E077
:1014100030E040E251E40E947D0B0E94970AAB014C
:1014200070E060E02AE082EC92E00E94920411CF2A
:1014300089E00E94E70160E089E00E949B0161E091
:1014400086E00E94E70161E068CF5058BB27AA27D9
:101450000E943D0A0C943E0B0E94300B38F00E9413
:10146000370B20F039F49F3F19F426F40C942D0B20
:101470000EF4E095E7FB0C94270BE92F0E944F0B2D
:1014800058F3BA17620773078407950720F079F4B9
:10149000A6F50C94710B0EF4E0950B2EBA2FA02D2F
:1014A0000B01B90190010C01CA01A0011124FF2711
:1014B000591B99F0593F50F4503E68F11A16F0400C
:1014C000A22F232F342F4427585FF3CF469537950B
:1014D0002795A795F0405395C9F77EF41F16BA0BD0
:1014E000620B730B840BBAF09150A1F0FF0FBB1F7E
:1014F000661F771F881FC2F70EC0BA0F621F731FC7
:10150000841F48F4879577956795B795F7959E3F23
:1015100008F0B0CF9395880F08F09927EE0F9795B4
:10152000879508950E94030B08F481E008950E94B6
:10153000570B88F09F5798F0B92F9927B751B0F003
:10154000E1F0660F771F881F991F1AF0BA95C9F747
:1015500014C0B13091F00E94710BB1E008950C9469
:10156000710B672F782F8827B85F39F0B93FCCF31C
:10157000869577956795B395D9F73EF490958095C4
:10158000709561957F4F8F4F9F4F0895E89409C0E4
:1015900097FB3EF490958095709561957F4F8F4FA6
:1015A0009F4F9923A9F0F92F96E9BB279395F695BC
:1015B000879577956795B795F111F8CFFAF4BB0F3A
:1015C00011F460FF1BC06F5F7F4F8F4F9F4F16C09E
:1015D000882311F096E911C0772321F09EE8872F28
:1015E000762F05C0662371F096E8862F70E060E0E4
:1015F0002AF09A95660F771F881FDAF7880F96955D
:10160000879597F90895990F0008550FAA0BE0E800
:10161000FEEF16161706E807F907C0F012161306B4
:10162000E407F50798F0621B730B840B950B39F4F4
:101630000A2661F0232B242B252B21F408950A265A
:1016400009F4A140A6958FEF811D811D089597F99A
:101650009F6780E870E060E008959FEF80EC089558
:1016600000240A9416161706180609060895002481
:101670000A9412161306140605060895092E0394FB
:10168000000C11F4882352F0BB0F40F4BF2B11F46F
:1016900060FF04C06F5F7F4F8F4F9F4F089557FDCE
:1016A0009058440F551F59F05F3F71F04795880FD0
:1016B00097FB991F61F09F3F79F087950895121667
:1016C00013061406551FF2CF4695F1DF08C0161613
:1016D00017061806991FF1CF8695710561050894C4
:1016E0000895E894BB2766277727CB0197F90895DB
:1016F0000E94030B08F48FEF08950E94900B0C9446
:101700003E0B0E94300B38F00E94370B20F09523DF
:1017100011F00C94270B0C942D0B11240C94720BCC
:101720000E944F0B70F3959FC1F3950F50E0551F2A
:10173000629FF001729FBB27F00DB11D639FAA2726
:10174000F00DB11DAA1F649F6627B00DA11D661F75
:10175000829F2227B00DA11D621F739FB00DA11D96
:10176000621F839FA00D611D221F749F3327A00D50
:10177000611D231F849F600D211D822F762F6A2FEC
:1017800011249F5750409AF0F1F088234AF0EE0F51
:10179000FF1FBB1F661F771F881F91505040A9F77E
:1017A0009E3F510580F00C94270B0C94720B5F3F09
:1017B000E4F3983ED4F3869577956795B795F795BA
:1017C000E7959F5FC1F7FE2B880F911D9695879532
:1017D00097F908950E94030B880B990B0895A1E2D5
:1017E0001A2EAA1BBB1BFD010DC0AA1FBB1FEE1F9B
:1017F000FF1FA217B307E407F50720F0A21BB30BE6
:10180000E40BF50B661F771F881F991F1A9469F761
:1018100060957095809590959B01AC01BD01CF01BD
:101820000895052E97FB1EF400940E94280C57FD86
:1018300007D00E94EF0B07FC03D04EF40C94280C49
:1018400050954095309521953F4F4F4F5F4F0895EC
:1018500090958095709561957F4F8F4F9F4F08951C
:10186000EE0FFF1F0590F491E02D0994F894FFCF3F
:10187000000000002E018E00BB007B01EC00CA00BE
:10188000DE00000000002D0300034304D602F9022D
:10189000E602D702000000007D048E0043046F02C0
:1018A0006A6172616B006E616E00696E66006F76D0
:1018B0006600434D00696E2C00636D000D0A000048
:00000001FF
