:100000000C9461000C947E000C947E000C947E0095
:100010000C947E000C947E000C947E000C947E0068
:100020000C947E000C947E000C947E000C947E0058
:100030000C947E000C947E000C947E000C947E0048
:100040000C9489010C947E000C947E000C947E002C
:100050000C947E000C947E000C947E000C947E0028
:100060000C947E000C947E00000000002400270009
:100070002A0000000000250028002B0000000000DE
:1000800023002600290004040404040404040202DA
:100090000202020203030303030301020408102007
:1000A0004080010204081020010204081020000012
:1000B0000008000201000003040700000000000027
:1000C000000011241FBECFEFD8E0DEBFCDBF11E08E
:1000D000A0E0B1E0EEE4F5E002C005900D92AC3096
:1000E000B107D9F721E0ACE0B1E001C01D92A53124
:1000F000B207E1F70E94D3010C94A5020C94000012
:10010000833081F028F4813099F08230A9F008958D
:100110008730A9F08830C9F08430B1F48091800034
:100120008F7D03C0809180008F7780938000089539
:1001300084B58F7784BD089584B58F7DFBCF809182
:10014000B0008F778093B00008958091B0008F7DCC
:10015000F9CFCF93DF93282F30E0F901E255FF4F1D
:100160008491F901E656FF4FD491F901EA57FF4F08
:10017000C491CC23A1F081110E948000EC2FF0E00B
:10018000EE0FFF1FE458FF4FA591B491EC91ED23C2
:1001900081E090E009F480E0DF91CF91089580E064
:1001A00090E0FACF1F93CF93DF93282F30E0F9012F
:1001B000E255FF4F8491F901E656FF4FD491F901C2
:1001C000EA57FF4FC491CC23A9F0162F81110E944A
:1001D0008000EC2FF0E0EE0FFF1FEE58FF4FA591CF
:1001E000B4918FB7F894EC91111108C0D095DE232B
:1001F000DC938FBFDF91CF911F910895DE2BF8CF55
:10020000CF93DF9390E0FC01E656FF4F24918A578D
:100210009F4FFC0184918823D1F090E0880F991FB3
:10022000FC01E859FF4FA591B491FC01EE58FF4F36
:10023000C591D49161110EC09FB7F8948C91E22FB3
:10024000E0958E238C932881E223E8839FBFDF9182
:10025000CF9108958FB7F894EC91E22BEC938FBF78
:10026000F6CF3FB7F8948091110190911201A091BF
:100270001301B091140126B5A89B05C02F3F19F0BA
:100280000196A11DB11D3FBFBA2FA92F982F882716
:10029000BC01CD01620F711D811D911D42E0660FF1
:1002A000771F881F991F4A95D1F708958F929F92C3
:1002B000AF92BF92CF92DF92EF92FF926B017C01DF
:1002C0000E9431014B015C01C114D104E104F1042D
:1002D000B9F00E943101681979098A099B09683EC1
:1002E00073408105910580F321E0C21AD108E1082D
:1002F000F10888EE880E83E0981EA11CB11CE4CFA3
:10030000FF90EF90DF90CF90BF90AF909F908F9035
:1003100008951F920F920FB60F9211242F933F93BF
:100320008F939F93AF93BF9380910D0190910E0196
:10033000A0910F01B091100130910C0123E0230F27
:100340002D3758F50196A11DB11D20930C01809306
:100350000D0190930E01A0930F01B09310018091B5
:10036000110190911201A0911301B0911401019615
:10037000A11DB11D8093110190931201A09313014F
:10038000B0931401BF91AF919F918F913F912F91A5
:100390000F900FBE0F901F90189526E8230F02961E
:1003A000A11DB11DD2CF789484B5826084BD84B57F
:1003B000816084BD85B5826085BD85B5816085BD60
:1003C00080916E00816080936E0010928100809118
:1003D00081008260809381008091810081608093A0
:1003E0008100809180008160809380008091B100C5
:1003F00084608093B1008091B00081608093B000F0
:1004000080917A00846080937A0080917A00826083
:1004100080937A0080917A00816080937A00809145
:100420007A00806880937A001092C100C0E0D1E029
:100430008881229661E00E94000181E0CC30D807DB
:10044000B9F760E088E00E94000160E089E00E9466
:10045000000180E0C82E80E0D82E88E00E94A9002C
:10046000019709F060C000E011E0D0E0C0E0F801C1
:10047000F0800E5F1F4F61E08F2D0E94D20064E676
:1004800070E080E090E00E94560160E08F2D0E94B5
:10049000D200C530D10529F061E0F80180810E94C9
:1004A000D20089E00E94A900019731F468EC70E065
:1004B00080E090E00E9456012196C630D105B9F641
:1004C00064E670E080E090E00E945601CAE0D1E06E
:1004D00060E088810E94D20064E670E080E090E0F5
:1004E0000E945601229761E088810E94D20089E033
:1004F0000E94A900019731F468EC70E080E090E080
:100500000E945601F1E0C030DF0711F764E670E0A9
:1005100080E090E00E945601C114D10409F49DCFFF
:100520000E9400009ACF89E00E94A900C0E0D1E0BB
:10053000019709F498CF8881229660E00E94D2004A
:0E05400081E0CC30D807B9F7E7CFF894FFCFB1
:0C054E0002000300040005000600070086
:00000001FF
